S00F00004D61657374726F2E737265633A
S11300000C9461000C947E000C947E000C947E0091
S11300100C947E000C947E000C947E000C947E0064
S11300200C947E000C947E000C947E000C947E0054
S11300300C947E000C947E000C947E000C947E0044
S11300400C947E000C947E000C947E000C947E0034
S11300500C947E000C947E000C947E000C947E0024
S11300600C947E000C947E000C947E000C947E0014
S11300700C947E000C947E000C947E000C947E0004
S11300800C947E000C947E000C947E000C947E00F4
S11300900C947E000C947E000C947E000C947E00E4
S11300A00C947E000C947E000C947E000C947E00D4
S11300B00C947E0098009F00A600B000BA00C40013
S11300C0CE0011241FBECFEFD8E0DEBFCDBF11E0BC
S11300D0A0E0B1E0E6E3F9E002C005900D92A6319C
S11300E0B107D9F721E0A6E1B1E001C01D92AF311B
S11300F0B207E1F70E94EC000C9499040C94000000
S1130100E82F84FF52C084B18C6284B984B18F7E9D
S113011084B98CB580618CBDE7708E2F90E08730F8
S1130120910508F04BC0FC01E65AFF4F0C947F0484
S11301308CB58C7F8CBD8CB581608CBD3FC08CB57B
S11301408D7F8CBD8DB58E7F8DBD38C08CB58160A3
S11301508CBD8CB58D7F8CBD8DB581608DBD2EC061
S11301608CB581608CBD8CB58D7F8CBD8CB58E7F3C
S11301708CBD24C08CB58E7F8CBD8CB582608CBD4B
S11301808CB581608CBD1AC08CB58E7F8CBD8CB54E
S113019082608CBD8DB58E7F8DBD10C08CB58360A3
S11301A08CBD8DB58E7F8DBD09C084B1806184B94D
S11301B084B1837D84B98CB58F7E8CBD8CB5462B80
S11301C0242B282B20642CBD08958EBD08950DB4D6
S11301D007FEFDCF8EB5089584B1846084B985B1DE
S11301E0846085B920E048E060E083E50E948000F7
S11301F00E947F0185B18B7F85B981E60E94E5006D
S11302000E94E70080931E01682F70E080E090E078
S11302100E94720320E030E040EA50E40E94FE03B2
S113022020E030E04FE753E40E94C80260931A01D3
S113023070931B0180931C0190931D0185B1846010
S113024085B98AE00E948B018AE00E948B0180E0DC
S113025091E00E94920160911A0170911B018091BA
S11302601C0190911D010E943E0289E091E00E94D0
S1130270920185B18B7F85B982E60E94E5000E94D8
S1130280E70080931E01682F70E080E090E00E94F8
S1130290720320E030E040EA50E40E94FE0320E0D4
S11302A030E04FE753E40E94C80260931601709354
S11302B01701809318019093190185B1846085B961
S11302C08AE00E948B018CE091E00E94920160918F
S11302D016017091170180911801909119010E94E3
S11302E03E0289E091E00E9492012FEF89E698E1B5
S11302F0215080409040E1F700C000007BCF109275
S1130300C50087E68093C40088E98093C10086E035
S11303108093C20008959091C00095FFFCCF809314
S1130320C6000895AC0120E007C09091C00095FF7D
S1130330FCCF3093C6002F5FFA01E20FF11D30812C
S11303403111F3CF08958F929F92AF92BF92CF92C3
S1130350DF92EF92FF920F931F93CF93DF93CDB76A
S1130360DEB72A970FB6F894DEBF0FBECDBF4B01A0
S11303705C017A010E943A038B01072E000C880B62
S1130380990B0E9472039B01AC01C501B4010E9448
S11303905B0220E030E048EC52E40E94FE030E943D
S11303A03A036B01772324F4CC24DD24C61AD70A3C
S11303B001151105C1F480E3D7018C93E1E0F0E06D
S11303C02CC0C8016AE070E00E946B04E1E0F0E038
S11303D0EC0FFD1FE20FF31F805D8083062F172FA4
S11303E02F5F3F4F02C020E030E0101611064CF39F
S11303F0E0E0F0E00FC0C7018E0F9F1F21503109CC
S1130400A1E0B0E0AC0FBD1FA20FB31F4C91DC0103
S11304104C9331961216130674F38F010F5F1F4F1E
S1130420D701AE0FBF1F8EE28C939F012E5F3F4F0B
S11304300E0D1F1DC6016AE070E00E946B04605D32
S1130440D8016C933396D701A20FB31F805D8C93B0
S1130450EE0DFF1D10822A960FB6F894DEBF0FBE74
S1130460CDBFDF91CF911F910F91FF90EF90DF905F
S1130470CF90BF90AF909F908F900895CF93DF93CC
S1130480CDB7DEB72A970FB6F894DEBF0FBECDBF47
S113049022E0AE014F5F5F4F0E94A301CE0101969F
S11304A00E9492012A960FB6F894DEBF0FBECDBF0C
S11304B0DF91CF9108955058BB27AA270E94730259
S11304C00C94C4030E94B60338F00E94BD0320F0CC
S11304D039F49F3F19F426F40C94B3030EF4E09519
S11304E0E7FB0C94AD03E92F0E94D50358F3BA1728
S11304F0620773078407950720F079F4A6F50C9436
S1130500F7030EF4E0950B2EBA2FA02D0B01B901C1
S113051090010C01CA01A0011124FF27591B99F075
S1130520593F50F4503E68F11A16F040A22F232F81
S1130530342F4427585FF3CF469537952795A795D1
S1130540F0405395C9F77EF41F16BA0B620B730B78
S1130550840BBAF09150A1F0FF0FBB1F661F771FE9
S1130560881FC2F70EC0BA0F621F731F841F48F49E
S1130570879577956795B795F7959E3F08F0B0CF27
S11305809395880F08F09927EE0F9795879508950E
S11305900E94DC020C94C4030E94BD0358F00E9424
S11305A0B60340F029F45F3F29F00C94AD035111D8
S11305B00C94F8030C94B3030E94D50368F39923B5
S11305C0B1F3552391F3951B550BBB27AA2762174B
S11305D07307840738F09F5F5F4F220F331F441F58
S11305E0AA1FA9F335D00E2E3AF0E0E832D091508C
S11305F05040E695001CCAF72BD0FE2F29D0660F79
S1130600771F881FBB1F261737074807AB07B0E8BB
S113061009F0BB0B802DBF01FF2793585F4F3AF0C1
S11306209E3F510578F00C94AD030C94F8035F3FA2
S1130630E4F3983ED4F3869577956795B795F79547
S11306409F5FC9F7880F911D9695879597F908952F
S1130650E1E0660F771F881FBB1F621773078407CB
S1130660BA0720F0621B730B840BBA0BEE1F88F7DA
S1130670E09508950E9441036894B1110C94F80325
S113068008950E94DD0388F09F5798F0B92F9927A9
S1130690B751B0F0E1F0660F771F881F991F1AF069
S11306A0BA95C9F714C0B13091F00E94F703B1E0D4
S11306B008950C94F703672F782F8827B85F39F0D3
S11306C0B93FCCF3869577956795B395D9F73EF402
S11306D090958095709561957F4F8F4F9F4F0895AA
S11306E0E89409C097FB3EF49095809570956195C8
S11306F07F4F8F4F9F4F9923A9F0F92F96E9BB277E
S11307009395F695879577956795B795F111F8CFF9
S1130710FAF4BB0F11F460FF1BC06F5F7F4F8F4F64
S11307209F4F16C0882311F096E911C0772321F05A
S11307309EE8872F762F05C0662371F096E8862FF2
S113074070E060E02AF09A95660F771F881FDAF749
S1130750880F9695879597F9089597F99F6780E88C
S113076070E060E008959FEF80EC089500240A94FF
S11307701616170618060906089500240A94121678
S11307801306140605060895092E0394000C11F4AB
S1130790882352F0BB0F40F4BF2B11F460FF04C058
S11307A06F5F7F4F8F4F9F4F089557FD9058440FB1
S11307B0551F59F05F3F71F04795880F97FB991FBC
S11307C061F09F3F79F08795089512161306140679
S11307D0551FF2CF4695F1DF08C016161706180606
S11307E0991FF1CF86957105610508940895E894E1
S11307F0BB2766277727CB0197F908950E94110438
S11308000C94C4030E94B60338F00E94BD0320F088
S1130810952311F00C94AD030C94B30311240C94A0
S1130820F8030E94D50370F3959FC1F3950F50E030
S1130830551F629FF001729FBB27F00DB11D639F8E
S1130840AA27F00DB11DAA1F649F6627B00DA11D34
S1130850661F829F2227B00DA11D621F739FB00DDA
S1130860A11D621F839FA00D611D221F749F33274A
S1130870A00D611D231F849F600D211D822F762FE3
S11308806A2F11249F5750409AF0F1F088234AF0C0
S1130890EE0FFF1FBB1F661F771F881F915050402C
S11308A0A9F79E3F510580F00C94AD030C94F80316
S11308B05F3FE4F3983ED4F3869577956795B795B3
S11308C0F795E7959F5FC1F7FE2B880F911D9695CD
S11308D0879597F9089597FB072E16F4009407D08F
S11308E077FD09D00E94850407FC05D03EF490955D
S11308F081959F4F0895709561957F4F0895EE0FF0
S1130900FF1F0590F491E02D0994AA1BBB1B51E134
S113091007C0AA1FBB1FA617B70710F0A61BB70B6B
S1130920881F991F5A95A9F780959095BC01CD0110
S10909300895F894FFCFC6
S1130936566F6C7420313A2000205600566F6C7442
S109094620323A200000FB
S9030000FC
