:100000000C9461000C947E000C947E000C947E0095
:100010000C947E000C947E000C947E000C947E0068
:100020000C947E000C947E000C947E000C947E0058
:100030000C947E000C947E000C947E000C947E0048
:100040000C947E000C94DB000C947E000C947E00DB
:100050000C947E000C947E000C947E000C947E0028
:100060000C947E000C947E000C947E000C947E0018
:100070000C947E000C947E000C947E000C947E0008
:100080000C947E000C947E000C947E000C947E00F8
:100090000C947E000C947E000C947E000C947E00E8
:1000A0000C947E000C947E000C947E000C947E00D8
:1000B0000C947E002F0136013D01470151015B0187
:1000C000650111241FBECFEFD8E0DEBFCDBF11E028
:1000D000A0E0B1E0ECE0F3E002C005900D92A030AA
:1000E000B107D9F721E0A0E0B1E001C01D92A43032
:1000F000B207E1F70E94AF000C9484010C94000059
:10010000ECE7F0E080818064808380818F7780835A
:1001100080818F7D8083EAE7F0E080818160808349
:100120008081826080838081846080838081806818
:10013000808308958770ECE7F0E09081907F892BB1
:100140008083EAE7F0E080818064808380917A0098
:1001500086FDFCCF809178009091790008958AB156
:100160008C6F8AB984B1836084B91BB815B820E05C
:1001700048E060E080E40E9417018CB580688CBD87
:100180000E948000789486E00E949A009093030178
:100190008093020187E00E949A009093010180936E
:1001A00000012FEF89E698E1215080409040E1F76F
:1001B00000C00000E8CF1F920F920FB60F921124DB
:1001C0002F933F934F935F936F937F938F939F935F
:1001D000AF93BF93EF93FF938EB5813659F480911F
:1001E00002019091030196958795969587950E94B7
:1001F0007C010CC0823651F4809100019091010184
:1002000096958795969587950E947C01FF91EF9131
:10021000BF91AF919F918F917F916F915F914F911E
:100220003F912F910F900FBE0F901F901895E82FC0
:1002300084FF52C084B18C6284B984B18F7E84B94A
:100240008CB580618CBDE7708E2F90E08730910572
:1002500008F04BC0FC01E65AFF4F0C947E018CB5B0
:100260008C7F8CBD8CB581608CBD3FC08CB58D7F83
:100270008CBD8DB58E7F8DBD38C08CB581608CBD39
:100280008CB58D7F8CBD8DB581608DBD2EC08CB53C
:1002900081608CBD8CB58D7F8CBD8CB58E7F8CBD07
:1002A00024C08CB58E7F8CBD8CB582608CBD8CB526
:1002B00081608CBD1AC08CB58E7F8CBD8CB5826080
:1002C0008CBD8DB58E7F8DBD10C08CB583608CBD0F
:1002D0008DB58E7F8DBD09C084B1806184B984B134
:1002E000837D84B98CB58F7E8CBD8CB5462B242B39
:1002F000282B20642CBD08958EBD0895EE0FFF1F9E
:0C0300000590F491E02D0994F894FFCFD3
:00000001FF
